:1000000040C064C063C062C061C04DC35FC05EC019
:1000100077C3FFC25BC0CBC2A5C258C057C056C091
:1000200055C054C053C000000000370034003100F8
:100030000000000038003500320004040404040409
:100040000404020202020202030303030303020286
:10005000030102040810204080010204081020015E
:100060000204081020408040000000000000000052
:100070000004050700000000000000000000000070
:100080009F0311241FBECFE5D4E0DEBFCDBF10E03B
:10009000A0E6B0E0ECE8F4E102C005900D92AA3DC4
:1000A000B107D9F721E0AAEDB0E001C01D92AB3D48
:1000B000B207E1F710E0C1E4D0E003C02197FE01F0
:1000C000CAD7C034D107D1F77ED3DEC999CFFB019F
:1000D000A485B585ED91FC9111970190F081E02DFB
:1000E000682FCD01099590E080E00895EFE6F0E0FB
:1000F0002491E8E5F0E09491E1E4F0E0E491EE236E
:10010000E1F0222349F02530C9F02730D1F0243026
:1001100019F42FB52F772FBDF0E0EE0FFF1FE05D34
:10012000FF4FA591B4912FB7F89481110EC08C9117
:10013000E92FE095E823EC932FBF08952FB52F7D8D
:10014000EACF25B52F7D25BDE7CFEC91E92BF3CF85
:1001500081E08093ED00089500000895AF92BF9272
:10016000CF92DF92EF92FF920F931F93CF93DF9383
:100170006C017B018B01040F151FEB015E01AE18B2
:10018000BF08C017D10759F06991D601ED91FC91D4
:100190000190F081E02DC6010995892B79F7C50101
:1001A000DF91CF911F910F91FF90EF90DF90CF9053
:1001B000BF90AF900895FC01538D448D252F30E002
:1001C000842F90E0821B930B541710F0CF96089564
:1001D00001970895FC01918D828D981761F0A28D91
:1001E000AE0FBF2FB11D5D968C91928D9F5F9F7357
:1001F000928F90E008958FEF9FEF0895FC01918D0D
:10020000828D981731F0828DE80FF11D858D90E079
:1002100008958FEF9FEF0895FC01918D228D892F16
:1002200090E0805C9F4F821B91098F7399270895FE
:100230008EEE90E0F1DF21E0892B09F420E0822F9F
:10024000089580E090E0892B19F0F2DF8111D8CE7B
:100250000895FC01A48DA80FB92FB11DA35ABF4F5B
:100260002C91848D90E001968F739927848FA689B5
:10027000B7892C93A089B1898C9180648C93938DDC
:10028000848D981306C00288F389E02D80818F7DCC
:1002900080830895EF92FF920F931F93CF93DF9384
:1002A000EC0181E0888F9B8D8C8D981316C0E889B6
:1002B000F989808185FF11C0EE89FF896083E88913
:1002C000F98980818064808381E090E0DF91CF9123
:1002D0001F910F91FF90EF900895F62E0B8D10E077
:1002E0000F5F1F4F0F731127E02E8C8D8E110BC0E7
:1002F0000FB607FCFACFE889F989808185FFF5CF31
:10030000CE01A7DFF2CFEB8DEC0FFD2FF11DE35AED
:10031000FF4FF0820B8FEA89FB8980818062D3CF07
:10032000CF93DF93EC01888D8823B1F0AA89BB8934
:10033000E889F9898C9185FD03C0808186FD0CC018
:100340000FB607FCF7CF8C9185FFF2CF808185FF38
:10035000EDCFCE017EDFEACFDF91CF910895CF932D
:10036000DF9390E0FC01EF5AFF4F2491865C9F4F92
:10037000FC0184918823C9F090E0880F991FFC014B
:10038000EA5DFF4FA591B491FC01E05DFF4FC5917F
:10039000D49161110DC09FB7F8948C912095822360
:1003A0008C938881282328839FBFDF91CF91089564
:1003B000623051F49FB7F8943C91822F809583234B
:1003C0008C93E8812E2BEFCF8FB7F894EC912E2BE6
:1003D0002C938FBFEACF3FB7F8948091DB009091C8
:1003E000DC00A091DD00B091DE0022B708B600FE6F
:1003F00005C02F3F19F00196A11DB11D3FBFBA2FB7
:10040000A92F982F8827BC01CD01620F711D811D76
:10041000911D42E0660F771F881F991F4A95D1F7FB
:1004200008958F929F92AF92BF92CF92DF92EF92F8
:10043000FF924B015C01CFDF6B017C01CCDF6C19BB
:100440007D098E099F09683E734081059105B0F3CF
:1004500021E0821A9108A108B10888EEC80E83E055
:10046000D81EE11CF11C81149104A104B10431F7E0
:10047000FF90EF90DF90CF90BF90AF909F908F90C4
:100480000895CF93DF93CDB7DEB72E970FB6F894CC
:10049000DEBF0FBECDBF87E690E09A8789871C86B6
:1004A0001B8682E08C838EEE90E09E878D87AE0166
:1004B000495E5F4F6D897E89CE01019626D32E96C7
:1004C0000FB6F894DEBF0FBECDBFDF91CF91089578
:1004D00080E690E09F938F9383E890E09F938F93C3
:1004E0008EEE90E09F938F93CCDF0F900F900F9044
:1004F0000F900F900F900895DF92EF92FF920F935D
:100500001F93CF93DF937C018B01CBE8D1E08A81ED
:1005100090E0019623E1D22ED89EB001D99E700DB5
:100520001124888199819DD5998388832A8140E10E
:1005300050E0B7012D9D800D911D11246ED68A814A
:10054000E881F9818D9DE00DF11D1124128B018B45
:100550008F5F8A83DF91CF911F910F91FF90EF9072
:10056000DF9008951F920F920FB60F9211242F93D0
:100570003F934F935F936F937F938F939F93AF932B
:10058000BF93EF93FF938EEE90E063DEFF91EF91C8
:10059000BF91AF919F918F917F916F915F914F919B
:1005A0003F912F910F900FBE0F901F9018951F92A3
:1005B0000F920FB60F9211242F938F939F93EF9367
:1005C000FF93E091FE00F091FF008081E091040133
:1005D000F091050182FD1BC09081809107018F5F22
:1005E0008F7320910801821741F0E0910701F0E03C
:1005F000E251FF4F958F80930701FF91EF919F91FB
:100600008F912F910F900FBE0F901F9018958081A2
:10061000F4CF1F920F920FB60F9211242F933F9396
:100620008F939F93AF93BF938091DF009091E000F1
:10063000A091E100B091E2003091DA0023E0230FB5
:100640002D3768F126E8230F0296A11DB11D2093D6
:10065000DA008093DF009093E000A093E100B09374
:10066000E2008091DB009091DC00A091DD00B09170
:10067000DE000196A11DB11D8093DB009093DC008C
:10068000A093DD00B093DE00BF91AF919F918F9159
:100690003F912F910F900FBE0F901F9018950196CC
:1006A000A11DB11DD4CF1F920F920FB60F9211242E
:1006B0002F933F938F939F938CB59DB526B537B5F8
:1006C000821B930B9DBD8CBD8091E400813031F481
:1006D00086B597B59093E6008093E5008091E4009D
:1006E000811105C08091E4008F5F8093E4009F91A9
:1006F0008F913F912F910F900FBE0F901F901895E3
:100700001F920F920FB60F9211242F938F939F93E6
:100710008091E7009091E800019649F08091E70010
:100720009091E80001969093E8008093E7009F91F4
:100730008F912F910F900FBE0F901F901895CF9310
:10074000DF93EEEEF0E01382128288EE93E0A0E0F9
:10075000B0E084839583A683B78385E790E0918397
:10076000808380E490E09587848729E230E03787B2
:1007700026872BE230E0318B208B2AE230E0338B6E
:10078000228B958B848B8CE290E0978B868B118EDD
:10079000128E138E148ECBE8D1E0198218821A8241
:1007A0001C821B828AE08F831092D6011092D501A1
:1007B00062E970E080E991E01BD518861092D401BF
:1007C000DF91CF910895789483B7836083BF89B711
:1007D000816089BF12E01EBD8EB581608EBD8FB570
:1007E00081608FBD85B5846085BD85B5806485BD1C
:1007F00087E886B91AB868EE73E080E090E011DE11
:10080000CEEED0E0E091FE00F091FF001083E09189
:10081000FA00F091FB001082E091FC00F091FD00E5
:1008200080E1808310920601E0910201F0910301C2
:1008300086E88083E0910001F09101018081886960
:100840008083E0910001F091010180818F7D8083A0
:1008500068E672E084E990E04FDE68EA70E088E9DB
:1008600090E04ADE8CEA90E090938F0180938E01B5
:1008700080E690E09F938F938DE990E09F938F9314
:10088000DF93CF93FEDD60E088E069DD61E087E023
:1008900066DD62E081E163DD62E082E160DD62E00D
:1008A00083E15DDDF8941FBC1EBC78940F900F901F
:1008B0000F900F900F900F9085EC482E80E0582EEF
:1008C00095EB692E90E0792E20E0822E20E0922E8A
:1008D000332433948EEE90E09FDC181619060CF04A
:1008E00059C08EEE90E076DCC82F80919201C8133B
:1008F00036C045ED51E060E971E083E991E0DED07A
:100900008C01892BD1F0C0908D01D12CC0918B012D
:10091000D0918C01F12CE12CEC14FD04BCF45E01AF
:1009200040E150E0BE01C8016AD46396892B51F4BE
:10093000D5015196ED91FC91099510929301109279
:10094000D401C8CFBFEFEB1AFB0AE6CFE0918E01CE
:10095000F0918F01309789F3C8010995EECF8C2F64
:100960000C2E000C990B35D4892B09F4B3CFE091F0
:10097000D401E03408F0AECF81E08E0F8093D40133
:10098000F0E0E557FE4FC087E82FF0E0E557FE4F57
:100990001086A0CF8091ED00813009F079C02FB78B
:1009A000F8948091DF009091E000A091E100B09177
:1009B000E2002FBF8093E9009093EA00A093EB0040
:1009C000B093EC001092ED001092E5001092E6005A
:1009D0001092E7001092E8001092E40081E086DBBC
:1009E00064E670E080E090E01CDDF8941FBC1EBC63
:1009F0008EB5816C8EBD89B7846289BF78942FB71C
:100A0000F8948091DF009091E000A091E100B09116
:100A1000E2002FBF4091E9005091EA006091EB00A5
:100A20007091EC00841B950BA60BB70B883B9B4089
:100A3000A105B10540F43092E3008091E4008130DB
:100A4000F1F61092E30080E051DBF8941FBC1EBC6D
:100A500078948091E300811125C08091E500909108
:100A6000E600A091E700B091E800BF93AF939F9399
:100A70008F937F926F928EEE90E09F938F9301DD24
:100A80008DB79EB708960FB6F8949EBF0FBE8DBF68
:100A90008114910409F41ECFCBDB882309F41ACF0B
:100AA000AFDA18CF5F924F928EEE90E09F938F93C4
:100AB000E8DC0F900F900F900F90EACFFA01A19110
:100AC000B081009719F41097E1F0CD01DC01CD0160
:100AD0000D90002011F4C00113C0FB0121912223CD
:100AE00019F02015D9F7F3CFFB012191201519F446
:100AF0001E92119606C02223C1F70D900020A1F787
:100B0000D001FA01A193B0830895ABE0B0E0EAE828
:100B1000F5E06AC27C013B018A01FC011782168262
:100B2000838181FFBAC1CE0101965C01F7019381F7
:100B3000F30193FD859193FF81913F01882309F48F
:100B400049C1853239F493FD859193FF81913F012D
:100B5000853221F4B70190E0B9D1E8CF912C212C56
:100B6000312CFFE1F31538F08B3211F190F4803223
:100B700009F1833229F137FC3CC020ED280F2A30DF
:100B800050F536FE20C08AE0989E200D1124922E4A
:100B900006C08D3291F0803371F7689430F8F3011C
:100BA00093FD859193FF81913F018111DACF21C09F
:100BB000689431F8689432F8F2CF689433F8EFCF44
:100BC000689434F8ECCFEAE02E9E200D1124222EFA
:100BD000689435F8E4CF8E3229F436FCFBC0689473
:100BE00036F8DDCF8C3619F4689437F8D8CF8836CC
:100BF000B1F2982F9F7D95549330D8F0833691F1C0
:100C00008337B1F1833509F05EC02801F2E04F0E61
:100C1000511CF801C080D180692D70E036FC02C003
:100C20006FEF7FEFC6013CD14C01689437F8820129
:100C30000AC00C5F1F4FFFE3F98388248394912C33
:100C40006501E89437F833FE2AC0522C81149104D0
:100C500059F5552009F46ACFB70180E290E036D10A
:100C60005A94F7CFF801808189830E5F1F4FE5CF3B
:100C70002801F2E04F0E511CF801C080D180692D8F
:100C800070E036FC02C06FEF7FEFC60114D14C015B
:100C90008201D7CFB70180E290E018D12A942814BE
:100CA000190409F0B8F7D1CFF60137FC859137FE6A
:100CB00081916F01B70190E009D151105A94F1E090
:100CC0008F1A9108C3CF843619F0893609F073C0A2
:100CD000F80137FE67C060817181828193810C5F6A
:100CE0001F4FF32DFF763F2E97FF09C090958095FB
:100CF000709561957F4F8F4F9F4F689437F82AE02A
:100D000030E0A50113D1C82ECA188C2C432C36FE16
:100D10000CC0E89440F8C91440F434FE05C032FC1D
:100D200003C0F32DFE7E4F2E892C44FE90C0FE01A1
:100D3000EC0DF11D8081803309F082C0242D297EC5
:100D4000422E842D8870582E43FC8FC040FE89C0EF
:100D50009C2C821418F42C0C922C981844FE8BC0F6
:100D6000B70180E390E0B2D042FE08C088E790E08F
:100D700041FE02C088E590E0B701A8D0C91408F48C
:100D800086C0CA94D12C9FEFC91AD90ACA0CDB1CA1
:100D9000F60182916F01B70190E098D0AC14BD04C8
:100DA000B9F757CF60817181072E000C880B990B22
:100DB0000E5F1F4F96CFD32CE894D4F82AE030E092
:100DC000853731F1232D297FD22E8F36F9F040F46B
:100DD0008835A1F0F701868197812B96E2E120C149
:100DE000803749F08837B1F7D4FE02C06894D2F852
:100DF00020E130E00DC06894D4F8F6CF34FE03C093
:100E0000822F8660D82E20E132E002C028E030E058
:100E1000F801D7FE0EC060817181828193810C5FE1
:100E20001F4FA50183D0C82ECA183D2CE89437F86F
:100E30006CCF6081718190E080E00E5F1F4FF1CF39
:100E400042FC02C083947DCF839483947ACF842D17
:100E5000867809F476CFF6CFB70180E290E036D0FD
:100E600083948214C8F3512C79CF522C58188214D1
:100E700008F474CFF8CF842D867809F47FCF8BE205
:100E800041FE80E247FC8DE2B70190E076CFB701EA
:100E900080E390E01BD09A9471CF8FEF9FEF9DCFAE
:100EA000FC010590615070400110D8F78095909535
:100EB0008E0F9F1F0895FC0161507040019001103A
:100EC000D8F7809590958E0F9F1F08950F931F93CD
:100ED000CF93DF93182F092FEB018B8181FD09C080
:100EE0001FEF0FEF812F902FDF91CF911F910F9167
:100EF000089582FF14C02E813F818C819D81281727
:100F000039073CF4E881F981CF0101969983888300
:100F100010838E819F8101969F838E83E3CFE88526
:100F2000F985812F0995892BA1F3DACFFA01AA2738
:100F3000283051F1203181F1E8946F936E7F6E5F1C
:100F40007F4F8F4F9F4FAF4FB1E03ED0B4E03CD0CA
:100F5000670F781F891F9A1FA11D680F791F8A1FAD
:100F6000911DA11D6A0F711D811D911DA11D20D014
:100F700009F468943F912AE0269F11243019305DCE
:100F80003193DEF6CF010895462F4770405D4193BF
:100F9000B3E00FD0C9F7F6CF462F4F70405D4A330C
:100FA00018F0495D31FD4052419302D0A9F7EACFD4
:100FB000B4E0A6959795879577956795BA95C9F703
:100FC00000976105710508959B01AC010A2E0694F6
:100FD0005795479537952795BA95C9F7620F731FAF
:100FE000841F951FA01D08952F923F924F925F92EC
:100FF0006F927F928F929F92AF92BF92CF92DF9229
:10100000EF92FF920F931F93CF93DF93CDB7DEB78D
:10101000CA1BDB0B0FB6F894DEBF0FBECDBF099421
:101020002A88398848885F846E847D848C849B8478
:10103000AA84B984C884DF80EE80FD800C811B8186
:10104000AA81B981CE0FD11D0FB6F894DEBF0FBEB5
:10105000CDBFED010895EE0FFF1F0590F491E02D37
:101060000994B0E0A0E0E6E3F8E0C0CF8C0100977F
:1010700041F4CB01E1D08C01C801CDB7DEB7E0E18E
:10108000D1CFFC01E60FF71F9C0122503109E21776
:10109000F30708F499C0D901CD91DC911197C617D7
:1010A000D70790F0C530D10538F3CE0104978617E5
:1010B000970710F3C61BD70B2297C193D1936D935B
:1010C0007C93CF0155D1D8CF5B01AC1ABD0A4C013E
:1010D0008C0E9D1EA091D901B091DA01512C412CAA
:1010E000F12CE12C109731F58091D7019091D80126
:1010F0008815990509F05CC04616570608F058C0D7
:1011000080916B0090916C00009741F48DB79EB771
:1011100040916F0050917000841B950BE817F90700
:1011200008F052C0F093D801E093D701F901718320
:101130006083A2CF8D919C91119712966C9012971B
:1011400013967C901397A815B90559F56C0142E0E8
:10115000C40ED11CCA14DB0420F1AC014A195B098E
:10116000DA011296159780F0628273825183408370
:10117000D9016D937C93E114F10471F0D7011396BA
:10118000FC93EE93129778CF22968C0F9D1FF90156
:1011900091838083F301EFCFF093DA01E093D901DB
:1011A0006BCF4816590608F42C017D01D3019ACF64
:1011B000CB0142D07C01009739F0AE01B8010FD0CD
:1011C000C801D6D0870158CF10E000E055CF80325B
:1011D00009F0911156C180528F55E0F70895FB0137
:1011E000DC0102C001900D9241505040D8F70895A3
:1011F000FB01DC0101900D920020E1F70895FB0155
:10120000DC014150504030F08D910190801919F46B
:101210000020B9F7881B990B0895FB01DC014150B0
:10122000504048F001900D920020C9F701C01D9276
:1012300041505040E0F708950F931F93CF93DF93F1
:101240008230910510F482E090E0E091D901F091B4
:10125000DA0130E020E0B0E0A0E0309799F4211509
:10126000310509F44AC0281B390B24303105D8F563
:101270008A819B816115710589F1FB0193838283CA
:10128000FE0111C040815181028113814817590725
:10129000E0F04817590799F4109761F012960C93F3
:1012A000129713961C933296CF01DF91CF911F9125
:1012B0000F9108950093D9011093DA01F4CF21150D
:1012C000310551F04217530738F0A901DB019A01AB
:1012D000BD01DF01F801C1CFEF01F9CF9093DA0131
:1012E0008093D901CDCFFE01E20FF31F819391933B
:1012F0002250310939832883D7CF2091D7013091EB
:10130000D801232B41F420916D0030916E00309371
:10131000D8012093D70120916B0030916C002115EA
:10132000310541F42DB73EB740916F0050917000E8
:10133000241B350BE091D701F091D801E217F30798
:10134000A0F42E1B3F0B2817390778F0AC014E5F35
:101350005F4F2417350748F04E0F5F1F5093D80199
:101360004093D701819391939FCFF0E0E0E09CCF31
:10137000CF93DF930097E9F0FC013297138212823A
:10138000A091D901B091DA01ED0130E020E0109791
:10139000A1F420813181820F931F2091D7013091D8
:1013A000D8012817390709F061C0F093D801E093FC
:1013B000D701DF91CF910895EA01CE17DF07E8F555
:1013C0004A815B819E0141155105B1F7E901FB831B
:1013D000EA8349915991C40FD51FEC17FD0761F4B9
:1013E000808191810296840F951FE90199838883FA
:1013F000828193819B838A83F0E0E0E012968D9155
:101400009C9113970097B9F52D913C911197CD01BF
:101410000296820F931F2091D7013091D80128178F
:10142000390739F6309751F51092DA011092D90147
:10143000B093D801A093D701BCCFD383C28340819E
:101440005181840F951FC817D90761F44E5F5F4F14
:1014500088819981480F591F518340838A819B81DC
:10146000938382832115310509F0B0CFF093DA011F
:10147000E093D9019ECFFD01DC01C0CF138212821F
:0C148000D7CF992788270895F894FFCF54
:10148C004D656761382056302E31000000DB01803D
:10149C0000000000004A01AE00DB0090010C01EAE4
:1014AC0000FE0053575F566572733A202573200D6A
:1014BC000A002000235357004745544600536F66DB
:1014CC0074776172652056657273696F6E3A202568
:1014DC0073200D0A004943503176616C3A20256C1B
:1014EC0075200D0A004943503176616C3A205469DD
:0A14FC006D656F7574200D0A000085
:00000001FF
